{
  "_format": "hh-sol-artifact-1",
  "contractName": "CHNKGasless",
  "sourceName": "contracts/CHNKGasless.sol",
  "abi": [
    {
      "inputs": [
        {
          "internalType": "address",
          "name": "_forwarder",
          "type": "address"
        },
        {
          "internalType": "address",
          "name": "_childChainManagerProxy",
          "type": "address"
        }
      ],
      "stateMutability": "nonpayable",
      "type": "constructor"
    },
    {
      "anonymous": false,
      "inputs": [
        {
          "indexed": true,
          "internalType": "address",
          "name": "owner",
          "type": "address"
        },
        {
          "indexed": true,
          "internalType": "address",
          "name": "spender",
          "type": "address"
        },
        {
          "indexed": false,
          "internalType": "uint256",
          "name": "value",
          "type": "uint256"
        }
      ],
      "name": "Approval",
      "type": "event"
    },
    {
      "anonymous": false,
      "inputs": [
        {
          "indexed": true,
          "internalType": "address",
          "name": "previousOwner",
          "type": "address"
        },
        {
          "indexed": true,
          "internalType": "address",
          "name": "newOwner",
          "type": "address"
        }
      ],
      "name": "OwnershipTransferred",
      "type": "event"
    },
    {
      "anonymous": false,
      "inputs": [
        {
          "indexed": true,
          "internalType": "address",
          "name": "from",
          "type": "address"
        },
        {
          "indexed": true,
          "internalType": "address",
          "name": "to",
          "type": "address"
        },
        {
          "indexed": false,
          "internalType": "uint256",
          "name": "value",
          "type": "uint256"
        }
      ],
      "name": "Transfer",
      "type": "event"
    },
    {
      "anonymous": false,
      "inputs": [
        {
          "indexed": true,
          "internalType": "address",
          "name": "sender",
          "type": "address"
        },
        {
          "indexed": true,
          "internalType": "address",
          "name": "recipient",
          "type": "address"
        },
        {
          "indexed": false,
          "internalType": "uint256",
          "name": "amount",
          "type": "uint256"
        },
        {
          "indexed": false,
          "internalType": "uint256",
          "name": "ref",
          "type": "uint256"
        }
      ],
      "name": "TransferRef",
      "type": "event"
    },
    {
      "inputs": [
        {
          "internalType": "address",
          "name": "owner",
          "type": "address"
        },
        {
          "internalType": "address",
          "name": "spender",
          "type": "address"
        }
      ],
      "name": "allowance",
      "outputs": [
        {
          "internalType": "uint256",
          "name": "",
          "type": "uint256"
        }
      ],
      "stateMutability": "view",
      "type": "function"
    },
    {
      "inputs": [
        {
          "internalType": "address",
          "name": "spender",
          "type": "address"
        },
        {
          "internalType": "uint256",
          "name": "amount",
          "type": "uint256"
        }
      ],
      "name": "approve",
      "outputs": [
        {
          "internalType": "bool",
          "name": "",
          "type": "bool"
        }
      ],
      "stateMutability": "nonpayable",
      "type": "function"
    },
    {
      "inputs": [
        {
          "internalType": "address",
          "name": "account",
          "type": "address"
        }
      ],
      "name": "balanceOf",
      "outputs": [
        {
          "internalType": "uint256",
          "name": "",
          "type": "uint256"
        }
      ],
      "stateMutability": "view",
      "type": "function"
    },
    {
      "inputs": [
        {
          "internalType": "address[]",
          "name": "recipients",
          "type": "address[]"
        },
        {
          "internalType": "uint256[]",
          "name": "amounts",
          "type": "uint256[]"
        },
        {
          "internalType": "uint256[]",
          "name": "refs",
          "type": "uint256[]"
        }
      ],
      "name": "bulkTransferRef",
      "outputs": [
        {
          "internalType": "bool",
          "name": "",
          "type": "bool"
        }
      ],
      "stateMutability": "nonpayable",
      "type": "function"
    },
    {
      "inputs": [],
      "name": "cap",
      "outputs": [
        {
          "internalType": "uint256",
          "name": "",
          "type": "uint256"
        }
      ],
      "stateMutability": "view",
      "type": "function"
    },
    {
      "inputs": [],
      "name": "childChainManagerProxy",
      "outputs": [
        {
          "internalType": "address",
          "name": "",
          "type": "address"
        }
      ],
      "stateMutability": "view",
      "type": "function"
    },
    {
      "inputs": [],
      "name": "decimals",
      "outputs": [
        {
          "internalType": "uint8",
          "name": "",
          "type": "uint8"
        }
      ],
      "stateMutability": "view",
      "type": "function"
    },
    {
      "inputs": [
        {
          "internalType": "address",
          "name": "spender",
          "type": "address"
        },
        {
          "internalType": "uint256",
          "name": "subtractedValue",
          "type": "uint256"
        }
      ],
      "name": "decreaseAllowance",
      "outputs": [
        {
          "internalType": "bool",
          "name": "",
          "type": "bool"
        }
      ],
      "stateMutability": "nonpayable",
      "type": "function"
    },
    {
      "inputs": [
        {
          "internalType": "address",
          "name": "user",
          "type": "address"
        },
        {
          "internalType": "bytes",
          "name": "depositData",
          "type": "bytes"
        }
      ],
      "name": "deposit",
      "outputs": [],
      "stateMutability": "nonpayable",
      "type": "function"
    },
    {
      "inputs": [
        {
          "internalType": "address",
          "name": "spender",
          "type": "address"
        },
        {
          "internalType": "uint256",
          "name": "addedValue",
          "type": "uint256"
        }
      ],
      "name": "increaseAllowance",
      "outputs": [
        {
          "internalType": "bool",
          "name": "",
          "type": "bool"
        }
      ],
      "stateMutability": "nonpayable",
      "type": "function"
    },
    {
      "inputs": [
        {
          "internalType": "address",
          "name": "forwarder",
          "type": "address"
        }
      ],
      "name": "isTrustedForwarder",
      "outputs": [
        {
          "internalType": "bool",
          "name": "",
          "type": "bool"
        }
      ],
      "stateMutability": "view",
      "type": "function"
    },
    {
      "inputs": [
        {
          "internalType": "address",
          "name": "to",
          "type": "address"
        },
        {
          "internalType": "uint256",
          "name": "amount",
          "type": "uint256"
        }
      ],
      "name": "mint",
      "outputs": [],
      "stateMutability": "nonpayable",
      "type": "function"
    },
    {
      "inputs": [],
      "name": "name",
      "outputs": [
        {
          "internalType": "string",
          "name": "",
          "type": "string"
        }
      ],
      "stateMutability": "view",
      "type": "function"
    },
    {
      "inputs": [],
      "name": "owner",
      "outputs": [
        {
          "internalType": "address",
          "name": "",
          "type": "address"
        }
      ],
      "stateMutability": "view",
      "type": "function"
    },
    {
      "inputs": [],
      "name": "renounceOwnership",
      "outputs": [],
      "stateMutability": "nonpayable",
      "type": "function"
    },
    {
      "inputs": [],
      "name": "symbol",
      "outputs": [
        {
          "internalType": "string",
          "name": "",
          "type": "string"
        }
      ],
      "stateMutability": "view",
      "type": "function"
    },
    {
      "inputs": [],
      "name": "totalSupply",
      "outputs": [
        {
          "internalType": "uint256",
          "name": "",
          "type": "uint256"
        }
      ],
      "stateMutability": "view",
      "type": "function"
    },
    {
      "inputs": [
        {
          "internalType": "address",
          "name": "to",
          "type": "address"
        },
        {
          "internalType": "uint256",
          "name": "amount",
          "type": "uint256"
        }
      ],
      "name": "transfer",
      "outputs": [
        {
          "internalType": "bool",
          "name": "",
          "type": "bool"
        }
      ],
      "stateMutability": "nonpayable",
      "type": "function"
    },
    {
      "inputs": [
        {
          "internalType": "address",
          "name": "from",
          "type": "address"
        },
        {
          "internalType": "address",
          "name": "to",
          "type": "address"
        },
        {
          "internalType": "uint256",
          "name": "amount",
          "type": "uint256"
        }
      ],
      "name": "transferFrom",
      "outputs": [
        {
          "internalType": "bool",
          "name": "",
          "type": "bool"
        }
      ],
      "stateMutability": "nonpayable",
      "type": "function"
    },
    {
      "inputs": [
        {
          "internalType": "address",
          "name": "newOwner",
          "type": "address"
        }
      ],
      "name": "transferOwnership",
      "outputs": [],
      "stateMutability": "nonpayable",
      "type": "function"
    },
    {
      "inputs": [
        {
          "internalType": "address",
          "name": "sender",
          "type": "address"
        },
        {
          "internalType": "address",
          "name": "recipient",
          "type": "address"
        },
        {
          "internalType": "uint256",
          "name": "amount",
          "type": "uint256"
        },
        {
          "internalType": "uint256",
          "name": "ref",
          "type": "uint256"
        }
      ],
      "name": "transferWithRef",
      "outputs": [
        {
          "internalType": "bool",
          "name": "",
          "type": "bool"
        }
      ],
      "stateMutability": "nonpayable",
      "type": "function"
    },
    {
      "inputs": [
        {
          "internalType": "address",
          "name": "_childChainManagerProxy",
          "type": "address"
        }
      ],
      "name": "updateChildChainManager",
      "outputs": [],
      "stateMutability": "nonpayable",
      "type": "function"
    },
    {
      "inputs": [
        {
          "internalType": "uint256",
          "name": "amount",
          "type": "uint256"
        }
      ],
      "name": "withdraw",
      "outputs": [],
      "stateMutability": "nonpayable",
      "type": "function"
    }
  ],
  "bytecode": "0x60c06040523480156200001157600080fd5b5060405162001a1938038062001a19833981016040819052620000349162000470565b604080518082018252600d81526c43727970746f204368756e6b7360981b60208083019182528351808501909452600484526343484e4b60e01b908401526001600160a01b03851660805281516b1027e72f1f1281308800000093916200009f9160039190620003ad565b508051620000b5906004906020840190620003ad565b505050600081116200010e5760405162461bcd60e51b815260206004820152601560248201527f45524332304361707065643a206361702069732030000000000000000000000060448201526064015b60405180910390fd5b60a052620001256200011f6200016e565b6200018a565b6001600655600780546001600160a01b0319166001600160a01b03831617905562000166620001536200016e565b6b1027e72f1f12813088000000620001dc565b50506200050c565b600062000185620001f760201b6200092c1760201c565b905090565b600580546001600160a01b038381166001600160a01b0319831681179093556040519116919082907f8be0079c531659141344cd1fd0a4f28419497f9722a3daafe3b4186f6b6457e090600090a35050565b620001f382826200023060201b620009761760201c565b5050565b6080516000906001600160a01b03163314156200021b575060131936013560601c90565b62000185620002bc60201b62000a031760201c565b60a0518162000249620002c060201b620004291760201c565b620002559190620004a8565b1115620002a55760405162461bcd60e51b815260206004820152601960248201527f45524332304361707065643a2063617020657863656564656400000000000000604482015260640162000105565b620001f38282620002c660201b62000a071760201c565b3390565b60025490565b6001600160a01b0382166200031e5760405162461bcd60e51b815260206004820152601f60248201527f45524332303a206d696e7420746f20746865207a65726f206164647265737300604482015260640162000105565b8060026000828254620003329190620004a8565b90915550506001600160a01b0382166000908152602081905260408120805483929062000361908490620004a8565b90915550506040518181526001600160a01b038316906000907fddf252ad1be2c89b69c2b068fc378daa952ba7f163c4a11628f55a4df523b3ef9060200160405180910390a3620001f3565b828054620003bb90620004cf565b90600052602060002090601f016020900481019282620003df57600085556200042a565b82601f10620003fa57805160ff19168380011785556200042a565b828001600101855582156200042a579182015b828111156200042a5782518255916020019190600101906200040d565b50620004389291506200043c565b5090565b5b808211156200043857600081556001016200043d565b80516001600160a01b03811681146200046b57600080fd5b919050565b600080604083850312156200048457600080fd5b6200048f8362000453565b91506200049f6020840162000453565b90509250929050565b60008219821115620004ca57634e487b7160e01b600052601160045260246000fd5b500190565b600181811c90821680620004e457607f821691505b602082108114156200050657634e487b7160e01b600052602260045260246000fd5b50919050565b60805160a0516114d962000540600039600081816101de0152610978015260008181610271015261093001526114d96000f3fe608060405234801561001057600080fd5b506004361061014d5760003560e01c80634a152328116100c357806395d89b411161007c57806395d89b411461030e578063a457c2d714610316578063a9059cbb14610329578063cf2c52cb1461033c578063dd62ed3e1461034f578063f2fde38b1461036257600080fd5b80634a1523281461024e578063572b6c051461026157806362f629e7146102a157806370a08231146102cc578063715018a6146102f55780638da5cb5b146102fd57600080fd5b8063313ce56711610115578063313ce567146101cd578063355274ea146101dc578063395093511461020257806340c10f1914610215578063445a67971461022857806348729ff11461023b57600080fd5b806306fdde0314610152578063095ea7b31461017057806318160ddd1461019357806323b872dd146101a55780632e1a7d4d146101b8575b600080fd5b61015a610375565b6040516101679190610ff9565b60405180910390f35b61018361017e36600461106a565b610407565b6040519015158152602001610167565b6002545b604051908152602001610167565b6101836101b3366004611094565b61042f565b6101cb6101c63660046110d0565b61045d565b005b60405160128152602001610167565b7f0000000000000000000000000000000000000000000000000000000000000000610197565b61018361021036600461106a565b610471565b6101cb61022336600461106a565b61049d565b6101cb6102363660046110e9565b6104fd565b6101836102493660046111e1565b6105ca565b61018361025c3660046112c5565b610650565b61018361026f3660046110e9565b7f00000000000000000000000000000000000000000000000000000000000000006001600160a01b0390811691161490565b6007546102b4906001600160a01b031681565b6040516001600160a01b039091168152602001610167565b6101976102da3660046110e9565b6001600160a01b031660009081526020819052604090205490565b6101cb6106be565b6005546001600160a01b03166102b4565b61015a610713565b61018361032436600461106a565b610722565b61018361033736600461106a565b6107a8565b6101cb61034a366004611307565b6107c0565b61019761035d36600461138a565b61084a565b6101cb6103703660046110e9565b610875565b606060038054610384906113bd565b80601f01602080910402602001604051908101604052809291908181526020018280546103b0906113bd565b80156103fd5780601f106103d2576101008083540402835291602001916103fd565b820191906000526020600020905b8154815290600101906020018083116103e057829003601f168201915b5050505050905090565b600080610412610ae6565b905061041f818585610af0565b5060019392505050565b60025490565b60008061043a610ae6565b9050610447858285610c15565b610452858585610c89565b506001949350505050565b61046e610468610ae6565b82610e57565b50565b60008061047c610ae6565b905061041f81858561048e858961084a565b610498919061140e565b610af0565b6104a5610ae6565b6001600160a01b03166104c06005546001600160a01b031690565b6001600160a01b0316146104ef5760405162461bcd60e51b81526004016104e690611426565b60405180910390fd5b6104f98282610f9d565b5050565b610505610ae6565b6001600160a01b03166105206005546001600160a01b031690565b6001600160a01b0316146105465760405162461bcd60e51b81526004016104e690611426565b6001600160a01b0381166105a85760405162461bcd60e51b815260206004820152602360248201527f426164204368696c64436861696e4d616e6167657250726f787920616464726560448201526239b99760e91b60648201526084016104e6565b600780546001600160a01b0319166001600160a01b0392909216919091179055565b6000805b8451811015610648576106356105e2610ae6565b8683815181106105f4576105f461145b565b602002602001015186848151811061060e5761060e61145b565b60200260200101518685815181106106285761062861145b565b6020026020010151610650565b508061064081611471565b9150506105ce565b509392505050565b600061065d858585610c89565b836001600160a01b0316856001600160a01b03167f9be86a1edd93f234e9c42b9ec0ff205d1b91b05eed309f225cc0a82f9365083085856040516106ab929190918252602082015260400190565b60405180910390a3506001949350505050565b6106c6610ae6565b6001600160a01b03166106e16005546001600160a01b031690565b6001600160a01b0316146107075760405162461bcd60e51b81526004016104e690611426565b6107116000610fa7565b565b606060048054610384906113bd565b60008061072d610ae6565b9050600061073b828661084a565b90508381101561079b5760405162461bcd60e51b815260206004820152602560248201527f45524332303a2064656372656173656420616c6c6f77616e63652062656c6f77604482015264207a65726f60d81b60648201526084016104e6565b6104528286868403610af0565b6000806107b3610ae6565b905061041f818585610c89565b6007546001600160a01b03166107d4610ae6565b6001600160a01b03161461082a5760405162461bcd60e51b815260206004820152601f60248201527f41646472657373206e6f7420616c6c6f77656420746f206465706f7369742e0060448201526064016104e6565b6000610838828401846110d0565b90506108448482610f9d565b50505050565b6001600160a01b03918216600090815260016020908152604080832093909416825291909152205490565b61087d610ae6565b6001600160a01b03166108986005546001600160a01b031690565b6001600160a01b0316146108be5760405162461bcd60e51b81526004016104e690611426565b6001600160a01b0381166109235760405162461bcd60e51b815260206004820152602660248201527f4f776e61626c653a206e6577206f776e657220697320746865207a65726f206160448201526564647265737360d01b60648201526084016104e6565b61046e81610fa7565b60007f00000000000000000000000000000000000000000000000000000000000000006001600160a01b031633141561096c575060131936013560601c90565b503390565b905090565b7f0000000000000000000000000000000000000000000000000000000000000000816109a160025490565b6109ab919061140e565b11156109f95760405162461bcd60e51b815260206004820152601960248201527f45524332304361707065643a206361702065786365656465640000000000000060448201526064016104e6565b6104f98282610a07565b3390565b6001600160a01b038216610a5d5760405162461bcd60e51b815260206004820152601f60248201527f45524332303a206d696e7420746f20746865207a65726f20616464726573730060448201526064016104e6565b8060026000828254610a6f919061140e565b90915550506001600160a01b03821660009081526020819052604081208054839290610a9c90849061140e565b90915550506040518181526001600160a01b038316906000907fddf252ad1be2c89b69c2b068fc378daa952ba7f163c4a11628f55a4df523b3ef9060200160405180910390a35050565b600061097161092c565b6001600160a01b038316610b525760405162461bcd60e51b8152602060048201526024808201527f45524332303a20617070726f76652066726f6d20746865207a65726f206164646044820152637265737360e01b60648201526084016104e6565b6001600160a01b038216610bb35760405162461bcd60e51b815260206004820152602260248201527f45524332303a20617070726f766520746f20746865207a65726f206164647265604482015261737360f01b60648201526084016104e6565b6001600160a01b0383811660008181526001602090815260408083209487168084529482529182902085905590518481527f8c5be1e5ebec7d5bd14f71427d1e84f3dd0314c0f7b2291e5b200ac8c7c3b92591015b60405180910390a3505050565b6000610c21848461084a565b905060001981146108445781811015610c7c5760405162461bcd60e51b815260206004820152601d60248201527f45524332303a20696e73756666696369656e7420616c6c6f77616e636500000060448201526064016104e6565b6108448484848403610af0565b6001600160a01b038316610ced5760405162461bcd60e51b815260206004820152602560248201527f45524332303a207472616e736665722066726f6d20746865207a65726f206164604482015264647265737360d81b60648201526084016104e6565b6001600160a01b038216610d4f5760405162461bcd60e51b815260206004820152602360248201527f45524332303a207472616e7366657220746f20746865207a65726f206164647260448201526265737360e81b60648201526084016104e6565b6001600160a01b03831660009081526020819052604090205481811015610dc75760405162461bcd60e51b815260206004820152602660248201527f45524332303a207472616e7366657220616d6f756e7420657863656564732062604482015265616c616e636560d01b60648201526084016104e6565b6001600160a01b03808516600090815260208190526040808220858503905591851681529081208054849290610dfe90849061140e565b92505081905550826001600160a01b0316846001600160a01b03167fddf252ad1be2c89b69c2b068fc378daa952ba7f163c4a11628f55a4df523b3ef84604051610e4a91815260200190565b60405180910390a3610844565b6001600160a01b038216610eb75760405162461bcd60e51b815260206004820152602160248201527f45524332303a206275726e2066726f6d20746865207a65726f206164647265736044820152607360f81b60648201526084016104e6565b6001600160a01b03821660009081526020819052604090205481811015610f2b5760405162461bcd60e51b815260206004820152602260248201527f45524332303a206275726e20616d6f756e7420657863656564732062616c616e604482015261636560f01b60648201526084016104e6565b6001600160a01b0383166000908152602081905260408120838303905560028054849290610f5a90849061148c565b90915550506040518281526000906001600160a01b038516907fddf252ad1be2c89b69c2b068fc378daa952ba7f163c4a11628f55a4df523b3ef90602001610c08565b6104f98282610976565b600580546001600160a01b038381166001600160a01b0319831681179093556040519116919082907f8be0079c531659141344cd1fd0a4f28419497f9722a3daafe3b4186f6b6457e090600090a35050565b600060208083528351808285015260005b818110156110265785810183015185820160400152820161100a565b81811115611038576000604083870101525b50601f01601f1916929092016040019392505050565b80356001600160a01b038116811461106557600080fd5b919050565b6000806040838503121561107d57600080fd5b6110868361104e565b946020939093013593505050565b6000806000606084860312156110a957600080fd5b6110b28461104e565b92506110c06020850161104e565b9150604084013590509250925092565b6000602082840312156110e257600080fd5b5035919050565b6000602082840312156110fb57600080fd5b6111048261104e565b9392505050565b634e487b7160e01b600052604160045260246000fd5b604051601f8201601f1916810167ffffffffffffffff8111828210171561114a5761114a61110b565b604052919050565b600067ffffffffffffffff82111561116c5761116c61110b565b5060051b60200190565b600082601f83011261118757600080fd5b8135602061119c61119783611152565b611121565b82815260059290921b840181019181810190868411156111bb57600080fd5b8286015b848110156111d657803583529183019183016111bf565b509695505050505050565b6000806000606084860312156111f657600080fd5b833567ffffffffffffffff8082111561120e57600080fd5b818601915086601f83011261122257600080fd5b8135602061123261119783611152565b82815260059290921b8401810191818101908a84111561125157600080fd5b948201945b83861015611276576112678661104e565b82529482019490820190611256565b9750508701359250508082111561128c57600080fd5b61129887838801611176565b935060408601359150808211156112ae57600080fd5b506112bb86828701611176565b9150509250925092565b600080600080608085870312156112db57600080fd5b6112e48561104e565b93506112f26020860161104e565b93969395505050506040820135916060013590565b60008060006040848603121561131c57600080fd5b6113258461104e565b9250602084013567ffffffffffffffff8082111561134257600080fd5b818601915086601f83011261135657600080fd5b81358181111561136557600080fd5b87602082850101111561137757600080fd5b6020830194508093505050509250925092565b6000806040838503121561139d57600080fd5b6113a68361104e565b91506113b46020840161104e565b90509250929050565b600181811c908216806113d157607f821691505b602082108114156113f257634e487b7160e01b600052602260045260246000fd5b50919050565b634e487b7160e01b600052601160045260246000fd5b60008219821115611421576114216113f8565b500190565b6020808252818101527f4f776e61626c653a2063616c6c6572206973206e6f7420746865206f776e6572604082015260600190565b634e487b7160e01b600052603260045260246000fd5b6000600019821415611485576114856113f8565b5060010190565b60008282101561149e5761149e6113f8565b50039056fea26469706673582212206916f304c9fcbe344fece3b0cab68641c5d02b746b340f50973c635de57f053064736f6c63430008090033",
  "linkReferences": {},
  "deployedLinkReferences": {}
}