{
  "_format": "hh-sol-artifact-1",
  "contractName": "Chunks_MinecraftPlayerData",
  "sourceName": "contracts/Chunks_MinecraftPlayerData.sol",
  "abi": [
    {
      "inputs": [
        {
          "internalType": "address",
          "name": "_forwarder",
          "type": "address"
        }
      ],
      "stateMutability": "nonpayable",
      "type": "constructor"
    },
    {
      "anonymous": false,
      "inputs": [
        {
          "indexed": true,
          "internalType": "address",
          "name": "previousOwner",
          "type": "address"
        },
        {
          "indexed": true,
          "internalType": "address",
          "name": "newOwner",
          "type": "address"
        }
      ],
      "name": "OwnershipTransferred",
      "type": "event"
    },
    {
      "anonymous": false,
      "inputs": [
        {
          "indexed": true,
          "internalType": "string",
          "name": "playerUUIDIndex",
          "type": "string"
        },
        {
          "indexed": false,
          "internalType": "string",
          "name": "playerUUID",
          "type": "string"
        },
        {
          "indexed": true,
          "internalType": "address",
          "name": "removedWalletAddress",
          "type": "address"
        }
      ],
      "name": "PlayerSecondaryWalletRemoved",
      "type": "event"
    },
    {
      "anonymous": false,
      "inputs": [
        {
          "indexed": true,
          "internalType": "string",
          "name": "playerUUIDIndex",
          "type": "string"
        },
        {
          "indexed": false,
          "internalType": "string",
          "name": "playerUUID",
          "type": "string"
        },
        {
          "indexed": true,
          "internalType": "address",
          "name": "setWalletAddress",
          "type": "address"
        }
      ],
      "name": "PlayerSecondaryWalletSet",
      "type": "event"
    },
    {
      "anonymous": false,
      "inputs": [
        {
          "indexed": true,
          "internalType": "string",
          "name": "playerUUIDIndex",
          "type": "string"
        },
        {
          "indexed": false,
          "internalType": "string",
          "name": "playerUUID",
          "type": "string"
        },
        {
          "indexed": true,
          "internalType": "address",
          "name": "setWalletAddress",
          "type": "address"
        }
      ],
      "name": "PlayerWalletSet",
      "type": "event"
    },
    {
      "inputs": [
        {
          "internalType": "string",
          "name": "_playerUUID",
          "type": "string"
        }
      ],
      "name": "getWalletByUUID",
      "outputs": [
        {
          "internalType": "address",
          "name": "",
          "type": "address"
        }
      ],
      "stateMutability": "view",
      "type": "function"
    },
    {
      "inputs": [
        {
          "internalType": "address",
          "name": "forwarder",
          "type": "address"
        }
      ],
      "name": "isTrustedForwarder",
      "outputs": [
        {
          "internalType": "bool",
          "name": "",
          "type": "bool"
        }
      ],
      "stateMutability": "view",
      "type": "function"
    },
    {
      "inputs": [],
      "name": "owner",
      "outputs": [
        {
          "internalType": "address",
          "name": "",
          "type": "address"
        }
      ],
      "stateMutability": "view",
      "type": "function"
    },
    {
      "inputs": [],
      "name": "renounceOwnership",
      "outputs": [],
      "stateMutability": "nonpayable",
      "type": "function"
    },
    {
      "inputs": [
        {
          "internalType": "address",
          "name": "_authority",
          "type": "address"
        }
      ],
      "name": "setAuthority",
      "outputs": [],
      "stateMutability": "nonpayable",
      "type": "function"
    },
    {
      "inputs": [
        {
          "internalType": "string",
          "name": "_playerUUID",
          "type": "string"
        },
        {
          "internalType": "bytes",
          "name": "_signature",
          "type": "bytes"
        }
      ],
      "name": "setPlayerPrimaryWallet",
      "outputs": [],
      "stateMutability": "nonpayable",
      "type": "function"
    },
    {
      "inputs": [
        {
          "internalType": "address",
          "name": "newOwner",
          "type": "address"
        }
      ],
      "name": "transferOwnership",
      "outputs": [],
      "stateMutability": "nonpayable",
      "type": "function"
    },
    {
      "inputs": [
        {
          "internalType": "address",
          "name": "",
          "type": "address"
        }
      ],
      "name": "walletToUUID",
      "outputs": [
        {
          "internalType": "string",
          "name": "",
          "type": "string"
        }
      ],
      "stateMutability": "view",
      "type": "function"
    }
  ],
  "bytecode": "0x60a06040523480156200001157600080fd5b506040516200120738038062001207833981016040819052620000349162000133565b6001600160a01b038116608052620000556200004f6200008a565b620000a6565b60018055620000636200008a565b600680546001600160a01b0319166001600160a01b03929092169190911790555062000165565b6000620000a1620000f660201b620006f11760201c565b905090565b600080546001600160a01b038381166001600160a01b0319831681178455604051919092169283917f8be0079c531659141344cd1fd0a4f28419497f9722a3daafe3b4186f6b6457e09190a35050565b6080516000906001600160a01b03163314156200011a575060131936013560601c90565b620000a16200012f60201b6200073b1760201c565b3390565b6000602082840312156200014657600080fd5b81516001600160a01b03811681146200015e57600080fd5b9392505050565b6080516110806200018760003960008181609d01526106f501526110806000f3fe608060405234801561001057600080fd5b50600436106100885760003560e01c80638da5cb5b1161005b5780638da5cb5b1461012a578063e986d76e1461013b578063f2964da11461014e578063f2fde38b1461016e57600080fd5b8063572b6c051461008d578063715018a6146100e25780637a9e5e4b146100ec57806383d743b3146100ff575b600080fd5b6100cd61009b366004610d69565b7f00000000000000000000000000000000000000000000000000000000000000006001600160a01b0390811691161490565b60405190151581526020015b60405180910390f35b6100ea610181565b005b6100ea6100fa366004610d69565b6101df565b61011261010d366004610ddb565b610294565b6040516001600160a01b0390911681526020016100d9565b6000546001600160a01b0316610112565b6100ea610149366004610e1d565b61030a565b61016161015c366004610d69565b61059d565b6040516100d99190610ee5565b6100ea61017c366004610d69565b610637565b61018961073f565b6001600160a01b03166101a46000546001600160a01b031690565b6001600160a01b0316146101d35760405162461bcd60e51b81526004016101ca90610ef8565b60405180910390fd5b6101dd6000610749565b565b6101e761073f565b6001600160a01b03166102026000546001600160a01b031690565b6001600160a01b0316146102285760405162461bcd60e51b81526004016101ca90610ef8565b6001600160a01b0381166102725760405162461bcd60e51b8152602060048201526011602482015270496e76616c696420417574686f7269747960781b60448201526064016101ca565b600680546001600160a01b0319166001600160a01b0392909216919091179055565b6000806102d684848080601f01602080910402602001604051908101604052809392919081815260200183838082843760009201919091525061079992505050565b90506003816040516102e89190610f2d565b908152604051908190036020019020546001600160a01b031691505092915050565b600061034b85858080601f01602080910402602001604051908101604052809392919081815260200183838082843760009201919091525061079992505050565b905061038761035861073f565b8260405160200161036a929190610f49565b60405160208183030381529060405280519060200120848461089c565b6103ca5760405162461bcd60e51b8152602060048201526014602482015273556e617574686f72697a6564204d617070696e6760601b60448201526064016101ca565b600260006103d661073f565b6001600160a01b03166001600160a01b03168152602001908152602001600020805461040190610f75565b1590506104505760405162461bcd60e51b815260206004820152601760248201527f57616c6c657420616c72656164792061737369676e656400000000000000000060448201526064016101ca565b60405180602001604052806000815250600260006003846040516104749190610f2d565b9081526040805160209281900383019020546001600160a01b0316835282820193909352910160002082516104af9391929190910190610cd0565b5080600260006104bd61073f565b6001600160a01b03166001600160a01b0316815260200190815260200160002090805190602001906104f0929190610cd0565b506104f961073f565b6003826040516105099190610f2d565b90815260405190819003602001902080546001600160a01b03929092166001600160a01b031990921691909117905561054061073f565b6001600160a01b0316816040516105579190610f2d565b60405180910390207fc1b441a14944d7b41da297c919e31689c4c701a2b7f9c23ad13ac7f3339e76ab8360405161058e9190610ee5565b60405180910390a35050505050565b600260205260009081526040902080546105b690610f75565b80601f01602080910402602001604051908101604052809291908181526020018280546105e290610f75565b801561062f5780601f106106045761010080835404028352916020019161062f565b820191906000526020600020905b81548152906001019060200180831161061257829003601f168201915b505050505081565b61063f61073f565b6001600160a01b031661065a6000546001600160a01b031690565b6001600160a01b0316146106805760405162461bcd60e51b81526004016101ca90610ef8565b6001600160a01b0381166106e55760405162461bcd60e51b815260206004820152602660248201527f4f776e61626c653a206e6577206f776e657220697320746865207a65726f206160448201526564647265737360d01b60648201526084016101ca565b6106ee81610749565b50565b60007f00000000000000000000000000000000000000000000000000000000000000006001600160a01b0316331415610731575060131936013560601c90565b503390565b905090565b3390565b60006107366106f1565b600080546001600160a01b038381166001600160a01b0319831681178455604051919092169283917f8be0079c531659141344cd1fd0a4f28419497f9722a3daafe3b4186f6b6457e09190a35050565b60608160005b815181101561089557604160f81b8282815181106107bf576107bf610fb0565b01602001516001600160f81b031916108015906108005750605a60f81b8282815181106107ee576107ee610fb0565b01602001516001600160f81b03191611155b61082a5781818151811061081657610816610fb0565b01602001516001600160f81b03191661085a565b81818151811061083c5761083c610fb0565b602001015160f81c60f81b60f81c60206108569190610fdc565b60f81b5b82828151811061086c5761086c610fb0565b60200101906001600160f81b031916908160001a9053508061088d81611001565b91505061079f565b5092915050565b600654604080516020601f85018190048102820181019092528381526000926001600160a01b0316916108f6919086908690819084018382808284376000920191909152506108f092508991506109089050565b9061095b565b6001600160a01b031614949350505050565b6040517f19457468657265756d205369676e6564204d6573736167653a0a3332000000006020820152603c8101829052600090605c01604051602081830303815290604052805190602001209050919050565b600080600061096a858561097f565b91509150610977816109ef565b509392505050565b6000808251604114156109b65760208301516040840151606085015160001a6109aa87828585610baa565b945094505050506109e8565b8251604014156109e057602083015160408401516109d5868383610c97565b9350935050506109e8565b506000905060025b9250929050565b6000816004811115610a0357610a0361101c565b1415610a0c5750565b6001816004811115610a2057610a2061101c565b1415610a6e5760405162461bcd60e51b815260206004820152601860248201527f45434453413a20696e76616c6964207369676e6174757265000000000000000060448201526064016101ca565b6002816004811115610a8257610a8261101c565b1415610ad05760405162461bcd60e51b815260206004820152601f60248201527f45434453413a20696e76616c6964207369676e6174757265206c656e6774680060448201526064016101ca565b6003816004811115610ae457610ae461101c565b1415610b3d5760405162461bcd60e51b815260206004820152602260248201527f45434453413a20696e76616c6964207369676e6174757265202773272076616c604482015261756560f01b60648201526084016101ca565b6004816004811115610b5157610b5161101c565b14156106ee5760405162461bcd60e51b815260206004820152602260248201527f45434453413a20696e76616c6964207369676e6174757265202776272076616c604482015261756560f01b60648201526084016101ca565b6000807f7fffffffffffffffffffffffffffffff5d576e7357a4501ddfe92f46681b20a0831115610be15750600090506003610c8e565b8460ff16601b14158015610bf957508460ff16601c14155b15610c0a5750600090506004610c8e565b6040805160008082526020820180845289905260ff881692820192909252606081018690526080810185905260019060a0016020604051602081039080840390855afa158015610c5e573d6000803e3d6000fd5b5050604051601f1901519150506001600160a01b038116610c8757600060019250925050610c8e565b9150600090505b94509492505050565b6000806001600160ff1b03831681610cb460ff86901c601b611032565b9050610cc287828885610baa565b935093505050935093915050565b828054610cdc90610f75565b90600052602060002090601f016020900481019282610cfe5760008555610d44565b82601f10610d1757805160ff1916838001178555610d44565b82800160010185558215610d44579182015b82811115610d44578251825591602001919060010190610d29565b50610d50929150610d54565b5090565b5b80821115610d505760008155600101610d55565b600060208284031215610d7b57600080fd5b81356001600160a01b0381168114610d9257600080fd5b9392505050565b60008083601f840112610dab57600080fd5b50813567ffffffffffffffff811115610dc357600080fd5b6020830191508360208285010111156109e857600080fd5b60008060208385031215610dee57600080fd5b823567ffffffffffffffff811115610e0557600080fd5b610e1185828601610d99565b90969095509350505050565b60008060008060408587031215610e3357600080fd5b843567ffffffffffffffff80821115610e4b57600080fd5b610e5788838901610d99565b90965094506020870135915080821115610e7057600080fd5b50610e7d87828801610d99565b95989497509550505050565b60005b83811015610ea4578181015183820152602001610e8c565b83811115610eb3576000848401525b50505050565b60008151808452610ed1816020860160208601610e89565b601f01601f19169290920160200192915050565b602081526000610d926020830184610eb9565b6020808252818101527f4f776e61626c653a2063616c6c6572206973206e6f7420746865206f776e6572604082015260600190565b60008251610f3f818460208701610e89565b9190910192915050565b6001600160a01b0383168152604060208201819052600090610f6d90830184610eb9565b949350505050565b600181811c90821680610f8957607f821691505b60208210811415610faa57634e487b7160e01b600052602260045260246000fd5b50919050565b634e487b7160e01b600052603260045260246000fd5b634e487b7160e01b600052601160045260246000fd5b600060ff821660ff84168060ff03821115610ff957610ff9610fc6565b019392505050565b600060001982141561101557611015610fc6565b5060010190565b634e487b7160e01b600052602160045260246000fd5b6000821982111561104557611045610fc6565b50019056fea2646970667358221220ace18e0cd6bdb38cf6f1066f9813d7a364910553673e92fa682ef84531d93d3864736f6c63430008090033",
  "linkReferences": {},
  "deployedLinkReferences": {}
}