{
  "_format": "hh-sol-artifact-1",
  "contractName": "CHNK",
  "sourceName": "contracts/CHNK.sol",
  "abi": [
    {
      "inputs": [],
      "stateMutability": "nonpayable",
      "type": "constructor"
    },
    {
      "anonymous": false,
      "inputs": [
        {
          "indexed": true,
          "internalType": "address",
          "name": "owner",
          "type": "address"
        },
        {
          "indexed": true,
          "internalType": "address",
          "name": "spender",
          "type": "address"
        },
        {
          "indexed": false,
          "internalType": "uint256",
          "name": "value",
          "type": "uint256"
        }
      ],
      "name": "Approval",
      "type": "event"
    },
    {
      "anonymous": false,
      "inputs": [
        {
          "indexed": true,
          "internalType": "address",
          "name": "previousOwner",
          "type": "address"
        },
        {
          "indexed": true,
          "internalType": "address",
          "name": "newOwner",
          "type": "address"
        }
      ],
      "name": "OwnershipTransferred",
      "type": "event"
    },
    {
      "anonymous": false,
      "inputs": [
        {
          "indexed": true,
          "internalType": "address",
          "name": "from",
          "type": "address"
        },
        {
          "indexed": true,
          "internalType": "address",
          "name": "to",
          "type": "address"
        },
        {
          "indexed": false,
          "internalType": "uint256",
          "name": "value",
          "type": "uint256"
        }
      ],
      "name": "Transfer",
      "type": "event"
    },
    {
      "anonymous": false,
      "inputs": [
        {
          "indexed": true,
          "internalType": "address",
          "name": "sender",
          "type": "address"
        },
        {
          "indexed": true,
          "internalType": "address",
          "name": "recipient",
          "type": "address"
        },
        {
          "indexed": false,
          "internalType": "uint256",
          "name": "amount",
          "type": "uint256"
        },
        {
          "indexed": false,
          "internalType": "uint256",
          "name": "ref",
          "type": "uint256"
        }
      ],
      "name": "TransferRef",
      "type": "event"
    },
    {
      "inputs": [
        {
          "internalType": "address",
          "name": "owner",
          "type": "address"
        },
        {
          "internalType": "address",
          "name": "spender",
          "type": "address"
        }
      ],
      "name": "allowance",
      "outputs": [
        {
          "internalType": "uint256",
          "name": "",
          "type": "uint256"
        }
      ],
      "stateMutability": "view",
      "type": "function"
    },
    {
      "inputs": [
        {
          "internalType": "address",
          "name": "spender",
          "type": "address"
        },
        {
          "internalType": "uint256",
          "name": "amount",
          "type": "uint256"
        }
      ],
      "name": "approve",
      "outputs": [
        {
          "internalType": "bool",
          "name": "",
          "type": "bool"
        }
      ],
      "stateMutability": "nonpayable",
      "type": "function"
    },
    {
      "inputs": [
        {
          "internalType": "address",
          "name": "account",
          "type": "address"
        }
      ],
      "name": "balanceOf",
      "outputs": [
        {
          "internalType": "uint256",
          "name": "",
          "type": "uint256"
        }
      ],
      "stateMutability": "view",
      "type": "function"
    },
    {
      "inputs": [
        {
          "internalType": "address[]",
          "name": "recipients",
          "type": "address[]"
        },
        {
          "internalType": "uint256[]",
          "name": "amounts",
          "type": "uint256[]"
        },
        {
          "internalType": "uint256[]",
          "name": "refs",
          "type": "uint256[]"
        }
      ],
      "name": "bulkTransferRef",
      "outputs": [
        {
          "internalType": "bool",
          "name": "",
          "type": "bool"
        }
      ],
      "stateMutability": "nonpayable",
      "type": "function"
    },
    {
      "inputs": [],
      "name": "cap",
      "outputs": [
        {
          "internalType": "uint256",
          "name": "",
          "type": "uint256"
        }
      ],
      "stateMutability": "view",
      "type": "function"
    },
    {
      "inputs": [],
      "name": "decimals",
      "outputs": [
        {
          "internalType": "uint8",
          "name": "",
          "type": "uint8"
        }
      ],
      "stateMutability": "view",
      "type": "function"
    },
    {
      "inputs": [
        {
          "internalType": "address",
          "name": "spender",
          "type": "address"
        },
        {
          "internalType": "uint256",
          "name": "subtractedValue",
          "type": "uint256"
        }
      ],
      "name": "decreaseAllowance",
      "outputs": [
        {
          "internalType": "bool",
          "name": "",
          "type": "bool"
        }
      ],
      "stateMutability": "nonpayable",
      "type": "function"
    },
    {
      "inputs": [
        {
          "internalType": "address",
          "name": "spender",
          "type": "address"
        },
        {
          "internalType": "uint256",
          "name": "addedValue",
          "type": "uint256"
        }
      ],
      "name": "increaseAllowance",
      "outputs": [
        {
          "internalType": "bool",
          "name": "",
          "type": "bool"
        }
      ],
      "stateMutability": "nonpayable",
      "type": "function"
    },
    {
      "inputs": [
        {
          "internalType": "address",
          "name": "to",
          "type": "address"
        },
        {
          "internalType": "uint256",
          "name": "amount",
          "type": "uint256"
        }
      ],
      "name": "mint",
      "outputs": [],
      "stateMutability": "nonpayable",
      "type": "function"
    },
    {
      "inputs": [],
      "name": "name",
      "outputs": [
        {
          "internalType": "string",
          "name": "",
          "type": "string"
        }
      ],
      "stateMutability": "view",
      "type": "function"
    },
    {
      "inputs": [],
      "name": "owner",
      "outputs": [
        {
          "internalType": "address",
          "name": "",
          "type": "address"
        }
      ],
      "stateMutability": "view",
      "type": "function"
    },
    {
      "inputs": [],
      "name": "renounceOwnership",
      "outputs": [],
      "stateMutability": "nonpayable",
      "type": "function"
    },
    {
      "inputs": [],
      "name": "symbol",
      "outputs": [
        {
          "internalType": "string",
          "name": "",
          "type": "string"
        }
      ],
      "stateMutability": "view",
      "type": "function"
    },
    {
      "inputs": [],
      "name": "totalSupply",
      "outputs": [
        {
          "internalType": "uint256",
          "name": "",
          "type": "uint256"
        }
      ],
      "stateMutability": "view",
      "type": "function"
    },
    {
      "inputs": [
        {
          "internalType": "address",
          "name": "to",
          "type": "address"
        },
        {
          "internalType": "uint256",
          "name": "amount",
          "type": "uint256"
        }
      ],
      "name": "transfer",
      "outputs": [
        {
          "internalType": "bool",
          "name": "",
          "type": "bool"
        }
      ],
      "stateMutability": "nonpayable",
      "type": "function"
    },
    {
      "inputs": [
        {
          "internalType": "address",
          "name": "from",
          "type": "address"
        },
        {
          "internalType": "address",
          "name": "to",
          "type": "address"
        },
        {
          "internalType": "uint256",
          "name": "amount",
          "type": "uint256"
        }
      ],
      "name": "transferFrom",
      "outputs": [
        {
          "internalType": "bool",
          "name": "",
          "type": "bool"
        }
      ],
      "stateMutability": "nonpayable",
      "type": "function"
    },
    {
      "inputs": [
        {
          "internalType": "address",
          "name": "newOwner",
          "type": "address"
        }
      ],
      "name": "transferOwnership",
      "outputs": [],
      "stateMutability": "nonpayable",
      "type": "function"
    },
    {
      "inputs": [
        {
          "internalType": "address",
          "name": "sender",
          "type": "address"
        },
        {
          "internalType": "address",
          "name": "recipient",
          "type": "address"
        },
        {
          "internalType": "uint256",
          "name": "amount",
          "type": "uint256"
        },
        {
          "internalType": "uint256",
          "name": "ref",
          "type": "uint256"
        }
      ],
      "name": "transferWithRef",
      "outputs": [
        {
          "internalType": "bool",
          "name": "",
          "type": "bool"
        }
      ],
      "stateMutability": "nonpayable",
      "type": "function"
    }
  ],
  "bytecode": "0x60a06040523480156200001157600080fd5b50604080518082018252600d81526c43727970746f204368756e6b7360981b60208083019182528351808501909452600484526343484e4b60e01b9084015281516b1027e72f1f12813088000000939162000070916003919062000149565b5080516200008690600490602084019062000149565b50505060008111620000de5760405162461bcd60e51b815260206004820152601560248201527f45524332304361707065643a2063617020697320300000000000000000000000604482015260640160405180910390fd5b608052620000ec33620000f7565b60016006556200022c565b600580546001600160a01b038381166001600160a01b0319831681179093556040519116919082907f8be0079c531659141344cd1fd0a4f28419497f9722a3daafe3b4186f6b6457e090600090a35050565b8280546200015790620001ef565b90600052602060002090601f0160209004810192826200017b5760008555620001c6565b82601f106200019657805160ff1916838001178555620001c6565b82800160010185558215620001c6579182015b82811115620001c6578251825591602001919060010190620001a9565b50620001d4929150620001d8565b5090565b5b80821115620001d45760008155600101620001d9565b600181811c908216806200020457607f821691505b602082108114156200022657634e487b7160e01b600052602260045260246000fd5b50919050565b608051610fb26200024f600039600081816101920152610a200152610fb26000f3fe608060405234801561001057600080fd5b50600436106101165760003560e01c80634a152328116100a257806395d89b411161007157806395d89b4114610250578063a457c2d714610258578063a9059cbb1461026b578063dd62ed3e1461027e578063f2fde38b1461029157600080fd5b80634a152328146101f157806370a0823114610204578063715018a61461022d5780638da5cb5b1461023557600080fd5b8063313ce567116100e9578063313ce56714610181578063355274ea1461019057806339509351146101b657806340c10f19146101c957806348729ff1146101de57600080fd5b806306fdde031461011b578063095ea7b31461013957806318160ddd1461015c57806323b872dd1461016e575b600080fd5b6101236102a4565b6040516101309190610b85565b60405180910390f35b61014c610147366004610bf6565b610336565b6040519015158152602001610130565b6002545b604051908152602001610130565b61014c61017c366004610c20565b61034e565b60405160128152602001610130565b7f0000000000000000000000000000000000000000000000000000000000000000610160565b61014c6101c4366004610bf6565b610372565b6101dc6101d7366004610bf6565b610394565b005b61014c6101ec366004610d32565b6103d5565b61014c6101ff366004610e16565b610454565b610160610212366004610e58565b6001600160a01b031660009081526020819052604090205490565b6101dc6104c2565b6005546040516001600160a01b039091168152602001610130565b6101236104f8565b61014c610266366004610bf6565b610507565b61014c610279366004610bf6565b610582565b61016061028c366004610e7a565b610590565b6101dc61029f366004610e58565b6105bb565b6060600380546102b390610ead565b80601f01602080910402602001604051908101604052809291908181526020018280546102df90610ead565b801561032c5780601f106103015761010080835404028352916020019161032c565b820191906000526020600020905b81548152906001019060200180831161030f57829003601f168201915b5050505050905090565b600033610344818585610656565b5060019392505050565b60003361035c85828561077a565b6103678585856107f4565b506001949350505050565b6000336103448185856103858383610590565b61038f9190610efe565b610656565b6005546001600160a01b031633146103c75760405162461bcd60e51b81526004016103be90610f16565b60405180910390fd5b6103d182826109c2565b5050565b6000805b845181101561044c57610439338683815181106103f8576103f8610f4b565b602002602001015186848151811061041257610412610f4b565b602002602001015186858151811061042c5761042c610f4b565b6020026020010151610454565b508061044481610f61565b9150506103d9565b509392505050565b60006104618585856107f4565b836001600160a01b0316856001600160a01b03167f9be86a1edd93f234e9c42b9ec0ff205d1b91b05eed309f225cc0a82f9365083085856040516104af929190918252602082015260400190565b60405180910390a3506001949350505050565b6005546001600160a01b031633146104ec5760405162461bcd60e51b81526004016103be90610f16565b6104f660006109cc565b565b6060600480546102b390610ead565b600033816105158286610590565b9050838110156105755760405162461bcd60e51b815260206004820152602560248201527f45524332303a2064656372656173656420616c6c6f77616e63652062656c6f77604482015264207a65726f60d81b60648201526084016103be565b6103678286868403610656565b6000336103448185856107f4565b6001600160a01b03918216600090815260016020908152604080832093909416825291909152205490565b6005546001600160a01b031633146105e55760405162461bcd60e51b81526004016103be90610f16565b6001600160a01b03811661064a5760405162461bcd60e51b815260206004820152602660248201527f4f776e61626c653a206e6577206f776e657220697320746865207a65726f206160448201526564647265737360d01b60648201526084016103be565b610653816109cc565b50565b6001600160a01b0383166106b85760405162461bcd60e51b8152602060048201526024808201527f45524332303a20617070726f76652066726f6d20746865207a65726f206164646044820152637265737360e01b60648201526084016103be565b6001600160a01b0382166107195760405162461bcd60e51b815260206004820152602260248201527f45524332303a20617070726f766520746f20746865207a65726f206164647265604482015261737360f01b60648201526084016103be565b6001600160a01b0383811660008181526001602090815260408083209487168084529482529182902085905590518481527f8c5be1e5ebec7d5bd14f71427d1e84f3dd0314c0f7b2291e5b200ac8c7c3b925910160405180910390a3505050565b60006107868484610590565b905060001981146107ee57818110156107e15760405162461bcd60e51b815260206004820152601d60248201527f45524332303a20696e73756666696369656e7420616c6c6f77616e636500000060448201526064016103be565b6107ee8484848403610656565b50505050565b6001600160a01b0383166108585760405162461bcd60e51b815260206004820152602560248201527f45524332303a207472616e736665722066726f6d20746865207a65726f206164604482015264647265737360d81b60648201526084016103be565b6001600160a01b0382166108ba5760405162461bcd60e51b815260206004820152602360248201527f45524332303a207472616e7366657220746f20746865207a65726f206164647260448201526265737360e81b60648201526084016103be565b6001600160a01b038316600090815260208190526040902054818110156109325760405162461bcd60e51b815260206004820152602660248201527f45524332303a207472616e7366657220616d6f756e7420657863656564732062604482015265616c616e636560d01b60648201526084016103be565b6001600160a01b03808516600090815260208190526040808220858503905591851681529081208054849290610969908490610efe565b92505081905550826001600160a01b0316846001600160a01b03167fddf252ad1be2c89b69c2b068fc378daa952ba7f163c4a11628f55a4df523b3ef846040516109b591815260200190565b60405180910390a36107ee565b6103d18282610a1e565b600580546001600160a01b038381166001600160a01b0319831681179093556040519116919082907f8be0079c531659141344cd1fd0a4f28419497f9722a3daafe3b4186f6b6457e090600090a35050565b7f000000000000000000000000000000000000000000000000000000000000000081610a4960025490565b610a539190610efe565b1115610aa15760405162461bcd60e51b815260206004820152601960248201527f45524332304361707065643a206361702065786365656465640000000000000060448201526064016103be565b6103d182826001600160a01b038216610afc5760405162461bcd60e51b815260206004820152601f60248201527f45524332303a206d696e7420746f20746865207a65726f20616464726573730060448201526064016103be565b8060026000828254610b0e9190610efe565b90915550506001600160a01b03821660009081526020819052604081208054839290610b3b908490610efe565b90915550506040518181526001600160a01b038316906000907fddf252ad1be2c89b69c2b068fc378daa952ba7f163c4a11628f55a4df523b3ef9060200160405180910390a35050565b600060208083528351808285015260005b81811015610bb257858101830151858201604001528201610b96565b81811115610bc4576000604083870101525b50601f01601f1916929092016040019392505050565b80356001600160a01b0381168114610bf157600080fd5b919050565b60008060408385031215610c0957600080fd5b610c1283610bda565b946020939093013593505050565b600080600060608486031215610c3557600080fd5b610c3e84610bda565b9250610c4c60208501610bda565b9150604084013590509250925092565b634e487b7160e01b600052604160045260246000fd5b604051601f8201601f1916810167ffffffffffffffff81118282101715610c9b57610c9b610c5c565b604052919050565b600067ffffffffffffffff821115610cbd57610cbd610c5c565b5060051b60200190565b600082601f830112610cd857600080fd5b81356020610ced610ce883610ca3565b610c72565b82815260059290921b84018101918181019086841115610d0c57600080fd5b8286015b84811015610d275780358352918301918301610d10565b509695505050505050565b600080600060608486031215610d4757600080fd5b833567ffffffffffffffff80821115610d5f57600080fd5b818601915086601f830112610d7357600080fd5b81356020610d83610ce883610ca3565b82815260059290921b8401810191818101908a841115610da257600080fd5b948201945b83861015610dc757610db886610bda565b82529482019490820190610da7565b97505087013592505080821115610ddd57600080fd5b610de987838801610cc7565b93506040860135915080821115610dff57600080fd5b50610e0c86828701610cc7565b9150509250925092565b60008060008060808587031215610e2c57600080fd5b610e3585610bda565b9350610e4360208601610bda565b93969395505050506040820135916060013590565b600060208284031215610e6a57600080fd5b610e7382610bda565b9392505050565b60008060408385031215610e8d57600080fd5b610e9683610bda565b9150610ea460208401610bda565b90509250929050565b600181811c90821680610ec157607f821691505b60208210811415610ee257634e487b7160e01b600052602260045260246000fd5b50919050565b634e487b7160e01b600052601160045260246000fd5b60008219821115610f1157610f11610ee8565b500190565b6020808252818101527f4f776e61626c653a2063616c6c6572206973206e6f7420746865206f776e6572604082015260600190565b634e487b7160e01b600052603260045260246000fd5b6000600019821415610f7557610f75610ee8565b506001019056fea26469706673582212200e3ed5ad03cc4310149782c0f5e389265597860438ff465b568141a334c9996164736f6c63430008090033",
  "linkReferences": {},
  "deployedLinkReferences": {}
}